:100000000C942A000C9434000C9434000C943400AA
:100010000C9434000C9434000C9434000C94340090
:100020000C9434000C9434000C9434000C94340080
:100030000C9434000C9434000C9434000C94340070
:100040000C9434000C9434000C9434000C94340060
:100050000C94340011241FBECFE5D8E0DEBFCDBF25
:100060000E9436000C9455000C940000DF93CF934F
:10007000CDB7DEB7E1E3F0E081E08083EAE3F0E0D2
:100080008FEF8083E0E3F0E080818695882F90E019
:10009000817090700097B1F3ABE3B0E0EBE3F0E078
:0E00A000908182E089278C93EDCFF894FFCFFA
:00000001FF
